:10000000830100308A001E28FC0003088301D4000D
:1000100083120313A10A0319A20A27302202113006
:1000200003192102031C1628A001A00A0B1183301A
:10003000810054088300FC0E7C0E090020308400EF
:100040003B30302083010730D300E930D2003B3011
:1000500084005230342083013B2C04068001840A42
:100060000406031900342D28F0003E208000840A85
:1000700004087006031900343528D200D31B492820
:10008000531B512853088A005208D20A0319D30A75
:1000900082008313531883175208D20A8400000881
:1000A00008002534643420344B346D342F345334F9
:1000B00061346134743400342A342A342A342034CC
:1000C000483449345A343D34303420342A342A34C4
:1000D0002A3400342034483449345A3420344734E4
:1000E0004F34533454344534523447344534533404
:0600F00049342034003405
:10071E008312080083120313AD000511803EE12BF6
:10072E008312031305110130E1230230AA2BF000CE
:10073E000030711870070310F00D0310F10CF10862
:10074E0003190800A02B83120313AD000430AE0072
:10075E005330AF00AF0BB12BAE0BAF2BAD0BAD2BA0
:10076E000800831203130515C42B2E08D3002D0881
:10077E00AD0A0319AE0A3D20E1232E08D3002D0841
:10078E003D20003803190800BC2BF401F5010310BD
:10079E00F30CF20C031CDA2B7008F4077108031823
:1007AE00710AF5070310F00DF10D720873040319A9
:1007BE000034CE2B83120313AF002F0E0F39F0002F
:1007CE000608F03970048600851585112F080F393B
:1007DE00F0000608F03970048600851585110D307D
:1007EE00B000B00BF82B080083120313A3000515FD
:0207FE00230EC8
:100800000F39F0000608F03970048600851585114F
:1008100023080F39F0000608F039700486008515AA
:1008200085110D30A400A40B132C080083120313B0
:1008300005110F30AA230330860085158511053078
:10084000AA23851585112130A300A30B252C85151E
:1008500085110530AA2302308600851585110D30DB
:10086000A300A30B312C2830E1230830E1230F3003
:10087000E1230630E12B0130831603138500860146
:10088000073083129F0085018601FA30AA231624BF
:1008900097230C30E123003091236A30AD00003003
:1008A000AE00B82383168112811101108114011149
:1008B0008B178B120B118312A101A201A001051C41
:1008C0005F2C833081008B16051C692C642C051865
:1008D0006C2CA0080319672C8B127324FA30AA23FE
:1008E000051C5B2C702C97232208F1002108F000D6
:1008F000A6267008AA007108AB007208AC004C086C
:10090000F3004D08F4004E08F500F001E130F1006D
:100910004530F200F4264F08F3005008F400510867
:10092000F500F4262A08F3002B08F4002C08F50043
:10093000BC267008A5007108A6007208A70025084B
:10094000F0002608F1002708F20035277008A30000
:100950007108A400003091236A30AD000030AE0071
:10096000B823A008031DC72C5130AE000030AF00E3
:100970002308A8002408A9002830AD003E30CE246A
:10098000403091233B30AD008030AE00B82B413079
:1009900091235C30AD000030AE00B82B8312B6005E
:1009A000B40103132D08B1007F2E3508253A031D2D
:1009B000722EFF30B200B301B0013C2EB60803190D
:1009C000E52C3608840083138001340808000230C7
:1009D000B1073102840083130008702EB00AF42C92
:1009E0000830B207FE30B2070230B107310284008E
:1009F00083130008B700840A0008B8003018B81F35
:100A0000082DB709B809B70A0319B80AB303092DA5
:100A1000B0010B30B2073208F200F3013808F100E0
:100A20003708F000A4277008B5003208F200F3017F
:100A30003708F0003808F100A4277408B7007508DB
:100A4000B800B901B90ABA013A083802031D2A2DC3
:100A500039083702031C472D3208F200F301390828
:100A6000F0003A08F100CC237408B9007508BA0008
:100A7000B303242DB40AB6080319452D36088400A3
:100A8000831320308000B60A472D20308F23B30314
:100A90003308803A7F3E03183A2D301C5C2DB40A8F
:100AA000B60803195A2D3608840083132D308000B0
:100AB000B60A5C2D2D308F233208F200F30139087D
:100AC000F0003A08F100A4277408B9007508BA00CC
:100AD00039040319912D3A08F3003908F200380857
:100AE000F1003708F000A4277408F0007508F10041
:100AF0003208F200F301A4277008B300803A763E72
:100B0000031C842D0730B307B40AB60803198E2DD1
:100B10003608840083133308303E572D3308303EA7
:100B20005B2D0A303502031C972D0730B507B40A38
:100B3000B6080319A12D3608840083133508303E0A
:100B40007A2E3508303E7E2EB40AB6080319AF2D32
:100B500036088400831320308000B60AB12D20307F
:100B60008F23B3033308803A7E3E0318A42D02304E
:100B7000B1073102840083130008B500722E0230E1
:100B8000B1073102840083130008B900840A000809
:100B9000BA00B50135083907D2003A08D300520827
:100BA0000318D30A3D2000380319D82DB50ACA2DE1
:100BB000320835020318DE2D3508B2003208B31BA7
:100BC0000A2EFF3A3307031C0A2EB40AB60803198B
:100BD000F02D36088400831320308000B60AF22DF1
:100BE00020308F23B303DE2D3A080313D3003908D6
:100BF0003D20B500B90A0319BA0AB40AB6080319A8
:100C0000082E36088400831335088000B60A0A2EA1
:100C100035088F23B203320FF42D7F2E2F08D30017
:100C20002E083D202A3A031D1C2E0230B107310246
:100C3000840083130008382E2F08D3002E083D208F
:100C4000D03EB200AE0A0319AF0A2F08D3002E0817
:100C50003D20B50030303502031C3C2E3A303502C1
:100C600003183C2E0A30F10032089E233507D03E8F
:100C7000B200AE0A0319AF0A2F08D3002E08AE0A3D
:100C80000319AF0A3D20B500003A0319DE2C2A3AB9
:100C90000319E72C043A03190E2E763A0319F02CA7
:100CA0003B3A0319B22D073A0319EE2C0B3A0319FC
:100CB000F22C1C3A0319BF2D063A0319F42C0D3AF5
:100CC0000319F02C30303502031C722E3A303502F5
:100CD0000318722E0A30F10033089E233507D03EE8
:100CE000B3003C2EB40AB60803197D2E36088400E2
:100CF000831335088000B60A7F2E35088F232F080E
:100D00000313D3002E08AE0A0319AF0A3D20B50025
:100D1000B508031DD52CB6080319922E3608840099
:100D20008313800134080800840803190034720812
:100D30008000840371088000840370088000003400
:100D4000F201F11BF2037208F300A92EF201F30184
:100D5000AE2EF31FAE2E7814DB27AF2EF8018E30A7
:100D6000F6008401F3080319822F0310F30CF20C30
:100D7000F10CF00CF60AB22E840158276727F9010E
:100D8000FA01FB01F60803190800770803190800A7
:100D90007602773EF600780CF8061830F50003105E
:100DA000F90DFA0DFB0D7208031DDE2E7408710299
:100DB000031DDC2E73087002031CE82E7308F0027A
:100DC0007408031C740FF102031CF203791403105E
:100DD000F00DF10DF20DF50BCF2E7908F0007A0829
:100DE000F1007B08F200822F840158276727F90160
:100DF000FA01FB010730F5000310F40CF30C031C9F
:100E00000C2F7008F90771080318710FFA077208A0
:100E10000318720FFB070310F00DF10DF20DF50B27
:100E2000FC2E0930F500182F0310FB0CFA0CF90CFE
:100E30000310F40CF30C031C272F7008F90771083A
:100E40000318710FFA0772080318720FFB07F50BEE
:100E5000142F7A307707F607780CF8067908F00037
:100E60007A08F1007B08F200822F84015827F301F1
:100E70008230F607F61B632FF030F607F61B512F72
:100E8000183076020318632FF608031D4A2F7818CE
:100E9000DB270800F6030310F00DF10DF20DF30D42
:100EA000442F0310F20CF10CF00CF60F512F472FCA
:100EB000F801710D720DF60000380319632FF80D5B
:100EC000F201F1170800F001F101F2010034F8100D
:100ED000740D750DF70000380319732F0318F814FB
:100EE000F501F4170800F701F301F401F50108001A
:100EF00076080319632FF113F80C760CF20003182F
:100F0000F117942EF608031D962FF001F101F2015E
:100F1000942E72030319F00A0319F10A0319F20A55
:100F20000310F20CF10CF00CF60A822FF208031DEC
:100F3000892F700871040319852FF11B782FF60390
:100F40000310F00DF10D9D2FF601F401F50172086B
:100F50007304031900341F30F6040310F60AF20D6F
:100F6000F30D031CAE2FF30CF20C73087102031D7A
:100F7000BB2F72087002031CC32F7208F0027308A3
:100F8000031C730AF102F40DF50DF60BF61AB32FDC
:100F9000F61FCF2FF409F40A0319F503F5097408B5
:100FA000F2007508F300761F0034F009F00A031907
:100FB000F103F10900340310FF30F007F009031CBE
:100FC000F107F109031CF207F209031CF307F30907
:100FD00008002034203420342034203420342034BD
:100FE0002034203420342034203420342034203461
:100FF000203400341034493440341034A9343E34A1
:02400E0061FF50
:00000001FF
